:100000000C9446000C9465000C9465000C946500FB
:100010000C9465000C9465000C9465000C946500CC
:100020000C9465000C9465000C9465000C946500BC
:100030000C9465000C9465000C9465000C946500AC
:100040000C9465000C9465000C9465000C9465009C
:100050000C9465000C9465000C9465000C9465008C
:100060000C9465000C9465000C9465000C9465007C
:100070000C9465000C9465000C9465000C9465006C
:100080000C9465000C9465000C94650011241FBE4F
:10009000CFEFD0E4DEBFCDBF11E0A0E0B1E0EEE3F2
:1000A000F2E000E00BBF02C007900D92A231B10751
:1000B000D9F711E0A2E1B1E001C01D92A531B1076D
:1000C000E1F70E940B010C941D010C940000CF93EA
:1000D000C82F8A3019F48DE00E9467009091C0000B
:1000E00095FFFCCFC093C60080E090E0CF910895CB
:1000F000442349F021E030E002C0220F331F6A950B
:10010000E2F7822B089521E030E002C0220F331F76
:100110006A95E2F720958223089521E030E002C03D
:10012000220F331F6A95E2F782230895EF92FF9220
:100130001F93CF93DF93109214011092130182B199
:10014000C1E0D1E0E0911201F0E0EF5FFE4F4081AD
:1001500061E00E94780082B982B1E0910001F0E094
:10016000EF5FFE4F408160E00E94780082B981E03D
:100170008093120182B1498161E00E94780082B9C6
:100180001092120182B1488161E00E94780082B928
:1001900080B162E080950E948D0090E09093140100
:1001A0008093130110E02FC01092000182B10F2E36
:1001B000F1E0EF2EF1E0FF2EF02DF701408160E03D
:1001C0000E94780082B9C0911301D0911401CC0F24
:1001D000DD1FD0931401C093130180B162E08095BC
:1001E0000E948D00C80FD11DD0931401C09313013C
:1001F00081E08093000182B1F701418160E00E94BB
:10020000780082B91F5F1E3078F2DF91CF911F9185
:10021000FF90EF9008958FEF84B915B881B912B8A7
:100220000E949600809113019091140196FF03C0E3
:0E0230008FEF85B9F5CF15B8F3CFF894FFCF57
:10023E000100010000000200000000670000000045
:02024E000000AE
:00000001FF
