:100000000C9448010C9467010C9467010C946701EF
:100010000C9467010C9467010C9467010C946701C0
:100020000C9467010C9467010C9467010C946701B0
:100030000C9467010C9467010C9467010C946701A0
:100040000C9467010C9467010C9467010C94670190
:100050000C9467010C9467010C9467010C94670180
:100060000C9467010C9467010C9467010C94670170
:100070000C9467010C9467010C9467010C94670160
:100080000C9467010C9467010C9467014104980378
:1000900015041A04210428042F0436043D044A04DC
:1000A000A904DE04E704F004FE040C051A052C057F
:1000B000000000000000005F0000000700070014BF
:1000C0007F147F14242A7F2A12231308646236497E
:1000D0005522500005030000001C2241000041226F
:1000E0001C0014083E081408083E080800503000A0
:1000F00000080808080800606000002010080402DA
:100100003E5149453E00427F4000426151494621EF
:1001100041454B311814127F1027454545393C4A5B
:1001200049493001710905033649494936064949AB
:10013000291E003636000000563600000814224101
:100140000014141414140041221408020151090669
:10015000324979413E7E1111117E7F494949363E2F
:10016000414141227F4141221C7F494949417F0948
:100170000909013E4149497A7F0808087F00417F0B
:1001800041002040413F017F081422417F40404010
:10019000407F020C027F7F0408107F3E4141413EB8
:1001A0007F090909063E4151215E7F09192946460A
:1001B0004949493101017F01013F4040403F1F2033
:1001C00040201F3F4038403F631408146307087005
:1001D00008076151494543007F414100020408106E
:1001E000200041417F0004020102044040404040A1
:1001F000000102040020545454787F4844443838A5
:1002000044444420384444487F3854545418087EA9
:100210000901020C5252523E7F0804047800447DCA
:1002200040002040443D007F1028440000417F40B2
:10023000007C041804787C0804047838444444386A
:100240007C14141408081414187C7C08040408484E
:1002500054545420043F4440203C4040207C1C2007
:1002600040201C3C4030403C44281028440C505056
:10027000503C4464544C44000836410000007F0068
:1002800000004136080010080810080000000000B7
:1002900011241FBECFEFD0E4DEBFCDBF11E0A0E040
:1002A000B1E0E8E2FBE000E00BBF02C007900D9276
:1002B000A637B107D9F713E0A6E7B1E001C01D9258
:1002C000A838B107E1F70E9465050C9492050C94DB
:1002D00000002998662319F02A9A90E015C02A9800
:1002E000FCCF47E050E0491B5109282F30E002C005
:1002F000359527954A95E2F720FF02C02B9A01C059
:100300002B982C9A2C989F5F983058F3299A08952F
:1003100060E00E946901089561E00E94690108950A
:10032000CF93DF93219A209A229A239A249A289A8B
:10033000299A83EC99E00197F1F700C00000289812
:100340008BE594E40197F1F700C00000289A299802
:1003500081E20E94880183E10E94880186E00E9478
:10036000880182EC0E94880180E20E94880189E075
:100370000E94880180E80E94880180E40E94880130
:10038000C0E0D0E004C080E00E948C012196C83F0C
:1003900091E0D907C0F388E00E9488018CE00E94B8
:1003A0008801DF91CF91089580E80E94880180E460
:1003B0000E94880110926E0310926F0380E090E01B
:1003C00005C0FC01EA58FE4F10820196883F21E0EB
:1003D0009207B8F30895882311F080E201C084E207
:1003E0000E9488010895262F26952695269590E04F
:1003F00034E5239F800D911D1124442379F067700B
:1004000021E030E002C0220F331F6A95E2F7FC01C1
:10041000EA58FE4F8081282B20830895677021E0E1
:1004200030E002C0220F331F6A95E2F7FC01EA5860
:10043000FE4F20958081282320830895EF92FF921C
:100440000F931F93CF93DF93E82EF62E00E047C063
:100450002E2D332727FD309520523109802F6F2D07
:100460000E947D05F901EE0FFF1FEE0FFF1FE20F47
:10047000F31FE80FF11DE055FF4FE491812F0E941B
:100480007D05F0E002C0F595E7958A95E2F7E0FF7B
:100490000AC060916F0380916E03610F41E0800F8D
:1004A0000E94F30109C060916F0380916E03610F98
:1004B00040E0800F0E94F3011F5F01C010E0212F78
:1004C00030E0CE01880F991F880F991F880F991F60
:1004D0008C1B9D0B281739070CF4BACF0F5F202F08
:1004E00030E0CF2DD0E0CE01880F991F880F991FE3
:1004F0008C0F9D1F281739070CF3EEE6F3E08F2DC4
:10050000880F880F8F0D9081890F8F5F80838435CE
:1005100070F010926E03EFE6F3E08F2D880F880FD6
:10052000880F982F9F198081890F8F5F808380911A
:100530006F03803320F010926E0310926F03DF91EF
:10054000CF911F910F91FF90EF9008951F93CF933C
:10055000DF93EC01162F04C02196612F0E941E022A
:1005600088818111F9CFDF91CF911F9108958093F8
:100570006E0360936F030895CF93DF9380E80E942A
:10058000880180E40E948801C0E0D0E007C0FE013D
:10059000EA58FE4F80810E948C012196C83F81E07D
:1005A000D807A8F3DF91CF910895CF93C82F8A3051
:1005B00019F48DE00E94D5029091C00095FFFCCF08
:1005C000C093C60080E090E0CF910895442349F0A5
:1005D00021E030E002C0220F331F6A95E2F7822B40
:1005E000089521E030E002C0220F331F6A95E2F740
:1005F00020958223089521E030E002C0220F331FAE
:100600006A95E2F7822308950F931F93CF9380B1E9
:1006100041E061E00E94E60282B980E28A95F1F74A
:1006200080B140E061E00E94E60282B980E18A95F3
:10063000F1F7C0E000E010E030C080B160E00E945F
:10064000FB0281110BC081E090E00C2E02C0880FEC
:10065000991F0A94E2F7082B192B0CC021E030E017
:100660000C2E02C0220F331F0A94E2F7209530951A
:100670000223132380B141E062E00E94E60282B9C6
:1006800080E18A95F1F780B140E062E00E94E602E5
:1006900082B980E18A95F1F7CF5FCC3070F2C80162
:1006A000CF911F910F910895FC0190E040E014C09C
:1006B00021E030E0092E02C0220F331F0A94E2F736
:1006C0002E233F23232B39F0DB01A40FB11D81E042
:1006D000890F8C934F5F9F5F9C3050F3FB01E40FB9
:1006E000F11D10820895AC0190E009C0FA01E90FF4
:1006F000F11D2081261741F0222349F09F5F9C3095
:10070000A8F380E090E0089581E090E0089580E013
:1007100090E008950F931F93CF93DF93EC018930FE
:10072000910508F0AAC0FC01EA5BFF4F0C94890513
:100730008091760390917703CC975CF420917403B9
:1007400030917503809172039091730328173907D4
:100750003CF088E090E0909387038093860391C0FB
:100760000E94040390937903809378036AE773E00F
:100770000E94540364E08AE793E00E947303892B8C
:1007800039F082E090E0909387038093860379C0EC
:1007900063E08AE793E00E947303892B39F083E0DA
:1007A00090E090938703809386036BC069E08AE7AB
:1007B00093E00E947303892B39F084E090E09093DA
:1007C0008703809386035DC061E08AE793E00E941F
:1007D0007303892B39F085E090E090938703809331
:1007E00086034FC06AE08AE793E00E947303892B77
:1007F00039F086E090E0909387038093860341C0B0
:1008000062E08AE793E00E947303892B39F087E066
:1008100090E0909387038093860333C081E090E05B
:1008200090938703809386032CC0109287031092C5
:10083000860327C081E090E090938703809386032E
:1008400020C081E090E0909387038093860319C0D5
:1008500081E090E0909387038093860312C081E04B
:1008600090E090938703809386030BC081E090E033
:10087000909387038093860304C01092870310929D
:100880008603C930D10508F01BC1FE01E15BFF4FB3
:100890000C9489050E94D40162E08EE091E00E94F0
:1008A000A60261E087E191E00E94A6020E94040393
:1008B00090937903809378036AE773E00E9454036E
:1008C00069E08AE793E00E947303892B69F087EE61
:1008D00093E0909373038093720381E090E0909390
:1008E0008703809386032CC061E08AE793E00E942F
:1008F0007303892B69F084E190E0909373038093F4
:10090000720381E090E0909387038093860318C080
:100910006AE08AE793E00E947303892B69F08AE01A
:1009200090E0909373038093720381E090E0909342
:1009300087038093860304C0109287031092860376
:10094000109277031092760310927503109274033D
:10095000B7C00E94D4018091700390917103892BDC
:1009600019F106E713E0F8019081C7E69C02812D9A
:1009700011248595859597FD839563E0805D0E94A0
:100980001E02F80180818C02C12D1124C595C595E8
:1009900087FDC395CC0F9C2F990F990FC90F8C1B06
:1009A00063E0805D0E941E02809176039091770340
:1009B0000196909377038093760382C01092770319
:1009C00010927603109275031092740379C01092FE
:1009D000750310927403109277031092760370C01F
:1009E00080917403909175030196909375038093A1
:1009F0007403109277031092760362C0809174039F
:100A000090917503019690937503809374031092EF
:100A100077031092760354C080917403909175030C
:100A2000019690937503809374031092770310924C
:100A3000760346C08091700390917103009731F462
:100A4000019690937103809370033AC0019790933D
:100A500071038093700334C00E94D40162E082E489
:100A600091E00E94A60261E08BE491E00E94A60260
:100A70000E94040390937903809378036AE773E0FC
:100A80000E94540363E08AE793E00E947303892B7A
:100A900029F0109287031092860306C088E090E048
:100AA00090938703809386031092770310927603C6
:100AB00010927503109274031092730310927203D4
:100AC000DF91CF911F910F9108958EEF81B981E051
:100AD00082B98FEF84B915B80E9490010E94D401A9
:100AE000109287031092860380918603909187036A
:100AF0000E948A030E94BC02F7CF991B79E004C0D0
:100B0000991F961708F0961B881F7A95C9F780954C
:100B10000895EE0FFF1F0024001C0BBE0790F691F6
:080B2000E02D0994F894FFCFC9
:100B28000000000200000000D50200000000576528
:100B38006C636F6D652100506C6561736520636837
:100B48006F6F736520446966666963756C74793A7A
:100B5800202020452861292C4D2862292C482878F6
:100B6800290047616D656F766572005468616E6B28
:100B780020796F7520666F7220706C6179696E6775
:100B88002120507265737353454C454354203220DD
:060B980072657365740034
:00000001FF
