:100000000C9446000C945D000C945D000C945D0013
:100010000C945D000C945D000C945D000C945D00EC
:100020000C945D000C945D000C945D000C945D00DC
:100030000C945D000C945D000C945D000C945D00CC
:100040000C945D000C945D000C945D000C945D00BC
:100050000C945D000C945D000C945D000C945D00AC
:100060000C945D000C945D000C945D000C945D009C
:100070000C945D000C945D000C945D000C945D008C
:100080000C945D000C945D000C945D0011241FBE67
:10009000CFEFD0E4DEBFCDBF11E0A0E0B1E0E2E7FA
:1000A000F1E000E00BBF02C007900D92AE30B10747
:1000B000D9F70E9476000C94B7000C940000CF93FF
:1000C000C82F8A3019F48DE00E945F009091C00023
:1000D00095FFFCCFC093C60080E090E0CF910895DB
:1000E000EAE7F0E08081806E808308958FEF84B925
:1000F00015B80E947000809178009091790080344A
:10010000910520F59C01295331092730310500F173
:10011000285F3F4F27303105E8F0285F3F4F2730F9
:100120003105D0F0285F3F4F27303105B8F0285F08
:100130003F4F27303105A0F0285F3F4F2730310572
:1001400088F00997079780F487E00FC08FE30DC010
:1001500087E30BC08FE209C087E207C08FE105C0CB
:1001600087E103C08FE001C080E085B9C4CFF89477
:02017000FFCFBF
:0E01720000000002000000005F00000000001E
:00000001FF
