:100000000C9446000C9465000C9465000C946500FB
:100010000C9465000C9465000C9465000C946500CC
:100020000C9465000C9465000C9465000C946500BC
:100030000C9465000C9465000C9465000C946500AC
:100040000C9465000C9465000C9465000C9465009C
:100050000C9465000C9465000C9465000C9465008C
:100060000C9465000C9465000C9465000C9465007C
:100070000C9465000C9465000C9465000C9465006C
:100080000C9465000C9465000C94650011241FBE4F
:10009000CFEFD0E4DEBFCDBF11E0A0E0B1E0ECE9EE
:1000A000F1E000E00BBF02C007900D92AE30B10747
:1000B000D9F711E0AEE0B1E001C01D92A031B10767
:1000C000E1F70E94BB000C94CC000C940000CF938D
:1000D000C82F8A3019F48DE00E9467009091C0000B
:1000E00095FFFCCFC093C60080E090E0CF910895CB
:1000F000442349F021E030E002C0220F331F6A950B
:10010000E2F7822B089521E030E002C0220F331F76
:100110006A95E2F720958223089521E030E002C03D
:10012000220F331F6A95E2F782230895109A119ADD
:100130000895119A109A119820B130E020953095C9
:1001400022FB882780F990E040E050E010C0109832
:10015000880F991F20B130E02095309522FB66274B
:1001600060F970E0862B972B109A4F5F5F4F4031FC
:1001700051056CF3089583E081B912B88FEF84B90B
:1001800015B80E9496000E94990086FF03C08FEF69
:0C01900085B9F9CF15B8F7CFF894FFCF70
:0E019C000000000200000000670000000000EC
:00000001FF
