:100000000C944E010C946D010C946D010C946D01D7
:100010000C946D010C946D010C946D010C946D01A8
:100020000C946D010C946D010C946D010C946D0198
:100030000C946D010C946D010C946D010C946D0188
:100040000C946D010C946D010C946D010C946D0178
:100050000C946D010C946D010C946D010C946D0168
:100060000C946D010C946D010C946D010C946D0158
:100070000C946D010C946D010C946D010C946D0148
:100080000C946D010C946D010C946D0137060D04F8
:10009000A904AE04B5046605C5052C063306BC04E8
:1000A0006D05CC054006AD06270744075507B20786
:1000B0000F086C087E086307C0071D0800000000D9
:1000C0000000005F00000007000700147F147F1489
:1000D000242A7F2A122313086462364955225000CD
:1000E00005030000001C2241000041221C001408EE
:1000F0003E081408083E08080050300000080808B0
:100100000808006060000020100804023E514945C4
:100110003E00427F400042615149462141454B31FA
:100120001814127F1027454545393C4A494930018A
:10013000710905033649494936064949291E0036E1
:100140003600000056360000081422410014141432
:100150001414004122140802015109063249794160
:100160003E7E1111117E7F494949363E414141226F
:100170007F4141221C7F494949417F090909013ECC
:100180004149497A7F0808087F00417F41002040AB
:10019000413F017F081422417F404040407F020CD4
:1001A000027F7F0408107F3E4141413E7F090909DB
:1001B000063E4151215E7F09192946464949493188
:1001C00001017F01013F4040403F1F2040201F3F71
:1001D0004038403F631408146307087008076151F2
:1001E000494543007F41410002040810200041417D
:1001F0007F0004020102044040404040000102042C
:100200000020545454787F484444383844444420AF
:10021000384444487F3854545418087E0901020C6D
:100220005252523E7F0804047800447D4000204032
:10023000443D007F1028440000417F40007C0418AA
:1002400004787C0804047838444444387C1414143A
:1002500008081414187C7C080404084854545420DA
:10026000043F4440203C4040207C1C2040201C3C5B
:100270004030403C44281028440C5050503C4464CA
:10028000544C44000836410000007F000000413615
:1002900008001008081008000000000011241FBE0C
:1002A000CFEFD0E4DEBFCDBF12E0A0E0B1E0EEECD6
:1002B000F3E100E00BBF02C007900D92A234B1073A
:1002C000D9F714E0A2E4B2E001C01D92A036B10754
:1002D000E1F70E94D3080C94E5090C9400002998DA
:1002E000662319F02A9A90E015C02A98FCCF47E0BF
:1002F00050E0491B5109282F30E002C03595279561
:100300004A95E2F720FF02C02B9A01C02B982C9A45
:100310002C989F5F983058F3299A089560E00E94C6
:100320006F01089561E00E946F010895CF93DF93FC
:10033000219A209A229A239A249A289A299A83EC1D
:1003400099E00197F1F700C0000028988BE594E44C
:100350000197F1F700C00000289A299881E20E94D5
:100360008E0183E10E948E0186E00E948E0182EC64
:100370000E948E0180E20E948E0189E00E948E011F
:1003800080E80E948E0180E40E948E01C0E0D0E0EF
:1003900004C080E00E9492012196C83F91E0D907F5
:1003A000C0F388E00E948E018CE00E948E01DF91F4
:1003B000CF91089580E80E948E0180E40E948E0112
:1003C00010923A0410923B0480E090E005C0FC01DA
:1003D000EE5BFD4F10820196883F21E09207B8F353
:1003E0000895882311F080E201C084E20E948E010A
:1003F0000895262F26952695269590E034E5239F8F
:10040000800D911D1124442379F0677021E030E0C4
:1004100002C0220F331F6A95E2F7FC01EE5BFD4F2D
:100420008081282B20830895677021E030E002C08E
:10043000220F331F6A95E2F7FC01EE5BFD4F20951A
:100440008081282320830895EF92FF920F931F93BA
:10045000CF93DF93E82EF62E00E047C02E2D3327F2
:1004600027FD309520523109802F6F2D0E94EB0817
:10047000F901EE0FFF1FEE0FFF1FE20FF31FE80F52
:10048000F11DE454FF4FE491812F0E94EB08F0E04E
:1004900002C0F595E7958A95E2F7E0FF0AC0609102
:1004A0003B0480913A04610F41E0800F0E94F90102
:1004B00009C060913B0480913A04610F40E0800FD5
:1004C0000E94F9011F5F01C010E0212F30E0CE0132
:1004D000880F991F880F991F880F991F8C1B9D0BE0
:1004E000281739070CF4BACF0F5F202F30E0CF2D3B
:1004F000D0E0CE01880F991F880F991F8C0F9D1F88
:10050000281739070CF3EAE3F4E08F2D880F880FE2
:100510008F0D9081890F8F5F8083843570F01092EA
:100520003A04EBE3F4E08F2D880F880F880F982FA3
:100530009F198081890F8F5F808380913B04803376
:1005400020F010923A0410923B04DF91CF911F915A
:100550000F91FF90EF9008951F93CF93DF93EC01DD
:10056000162F04C02196612F0E94240288818111D8
:10057000F9CFDF91CF911F91089580933A04609352
:100580003B040895CF93DF9380E80E948E0180E4BE
:100590000E948E01C0E0D0E007C0FE01EE5BFD4F7F
:1005A00080810E9492012196C83F81E0D807A8F37C
:1005B000DF91CF910895CF93C82F8A3019F48DE041
:1005C0000E94DB029091C00095FFFCCFC093C60053
:1005D00080E090E0CF910895442349F021E030E09D
:1005E00002C0220F331F6A95E2F7822B089521E0A3
:1005F00030E002C0220F331F6A95E2F72095822374
:10060000089521E030E002C0220F331F6A95E2F71F
:10061000822308950F931F93CF9380B141E061E04F
:100620000E94EC0282B980E28A95F1F780B140E045
:1006300061E00E94EC0282B980E18A95F1F7C0E0A6
:1006400000E010E030C080B160E00E940103811141
:100650000BC081E090E00C2E02C0880F991F0A9415
:10066000E2F7082B192B0CC021E030E00C2E02C061
:10067000220F331F0A94E2F72095309502231323AB
:1006800080B141E062E00E94EC0282B980E18A958B
:10069000F1F780B140E062E00E94EC0282B980E1B3
:1006A0008A95F1F7CF5FCC3070F2C801CF911F91DE
:1006B0000F910895FC0190E040E014C021E030E08B
:1006C000092E02C0220F331F0A94E2F72E233F2384
:1006D000232B39F0DB01A40FB11D81E0890F8C932E
:1006E0004F5F9F5F9C3050F3FB01E40FF11D1082C0
:1006F0000895AC0190E009C0FA01E90FF11D2081D5
:10070000261741F0222349F09F5F9C30A8F380E038
:1007100090E0089581E090E0089580E090E00895F1
:100720000E94730965E070E00E94F708009799F451
:1007300088E090E0909343048093420482E090E04C
:10074000909341048093400484E090E090933F04B0
:1007500080933E0408958130910599F485E090E0FE
:10076000909343048093420482E090E0909341048C
:100770008093400481E090E090933F0480933E0496
:1007800008958230910599F487E090E090934304B6
:100790008093420482E090E090934104809340046F
:1007A00083E090E090933F0480933E040895039784
:1007B00099F484E090E0909343048093420481E0B4
:1007C00090E0909341048093400483E090E0909304
:1007D0003F0480933E04089585E090E090934304A5
:1007E0008093420483E090E090934104809340041E
:1007F00084E090E090933F0480933E0408950F932B
:100800001F93CF93DF93EC018C30910508F02BC23E
:10081000FC01EA5BFF4F0C940B0980914E04909110
:100820004F04CC975CF420914C0430914D0480919E
:100830004A0490914B04281739073CF088E090E077
:1008400090935F0480935E0412C22091460430911D
:10085000470480913E0490913F042817390739F0EE
:1008600020914404309145048217930769F481E094
:1008700090E090933D0480933C0488E090E0909356
:100880005F0480935E04F3C10E940A0390935104B5
:100890008093500462E574E00E945A0364E082E5AC
:1008A00094E00E947903892B39F082E090E09093E4
:1008B0005F0480935E04DBC163E082E594E00E9404
:1008C0007903892B39F083E090E090935F04809363
:1008D0005E04CDC169E082E594E00E947903892B32
:1008E00039F084E090E090935F0480935E04BFC190
:1008F00061E082E594E00E947903892B39F085E07C
:1009000090E090935F0480935E04B1C16AE082E559
:1009100094E00E947903892B39F086E090E090936F
:100920005F0480935E04A3C162E082E594E00E94CC
:100930007903892B39F087E090E090935F048093EE
:100940005E0495C181E090E090935F0480935E0423
:100950008EC110925F0410925E0489C181E090E024
:1009600090935F0480935E0482C189E090E090934D
:100970005F0480935E047BC180914E0490914F048C
:10098000CC973CF088E090E090935F0480935E0405
:100990006EC10E940A03909351048093500462E553
:1009A00074E00E945A0369E082E594E00E947903B2
:1009B000892B61F428C001969093470480934604E4
:1009C000215031093093450420934404809146041A
:1009D0009091470420914204309143048217930779
:1009E0003CF42091440430914504121613061CF384
:1009F00010924F0410924E0481E090E090935F04B7
:100A000080935E0434C161E082E594E00E94790342
:100A1000892B61F446C00196909347048093460465
:100A200021503109309345042093440480914604B9
:100A30009091470420914204309143048217930718
:100A40009CF42091440430914504121613061CF3C3
:100A50000BC021503109309347042093460401967E
:100A600090934504809344048091440490914504FC
:100A70002091400430914104821793073CF4209167
:100A8000460430914704121613061CF310924F04CB
:100A900010924E0481E090E090935F0480935E0496
:100AA000E6C06AE082E594E00E947903892B39F080
:100AB00081E090E090935F0480935E04D8C089E069
:100AC00090E090935F0480935E04D1C08AE090E050
:100AD00090935F0480935E04CAC080914E0490910D
:100AE0004F04CC973CF088E090E090935F048093B3
:100AF0005E04BDC00E940A03909351048093500489
:100B000062E574E00E945A0369E082E594E00E9485
:100B10007903892B79F010924704109246041092C1
:100B20004F0410924E0481E090E090935F04809314
:100B30005E049DC061E082E594E00E947903892B08
:100B400079F0109245041092440410924F041092D0
:100B50004E0481E090E090935F0480935E0487C030
:100B60006AE082E594E00E947903892B39F081E004
:100B700090E090935F0480935E0479C08AE090E0F7
:100B800090935F0480935E0472C08BE090E090933A
:100B90005F0480935E046BC080914E0490914F047B
:100BA000CC973CF088E090E090935F0480935E04E3
:100BB0005EC00E940A03909351048093500462E542
:100BC00074E00E945A0369E082E594E00E94790390
:100BD000892B99F0809142049091430490934704AB
:100BE0008093460410924F0410924E0481E090E0EE
:100BF00090935F0480935E043AC061E082E594E0E4
:100C00000E947903892B99F08091400490914104CE
:100C1000909345048093440410924F0410924E0424
:100C200081E090E090935F0480935E0420C06AE0CE
:100C300082E594E00E947903892B39F081E090E00D
:100C400090935F0480935E0412C08BE090E09093D9
:100C50005F0480935E040BC081E090E090935F049A
:100C600080935E0404C010925F0410925E04CC3046
:100C7000D10508F093C2FE01EE5AFF4F0C940B0908
:100C80000E94DA0162E082E191E00E94AC0261E040
:100C90008BE191E00E94AC020E940A039093510400
:100CA0008093500462E574E00E945A0369E082E593
:100CB00094E00E947903892B69F080E590E090939D
:100CC0004B0480934A0481E090E090935F0480930A
:100CD0005E042CC061E082E594E00E947903892BD8
:100CE00069F088E290E090934B0480934A0481E09D
:100CF00090E090935F0480935E0418C06AE082E500
:100D000094E00E947903892B69F084E190E090934C
:100D10004B0480934A0481E090E090935F048093B9
:100D20005E0404C010925F0410925E0410923D04B1
:100D300010923C041092470410924604109245040D
:100D4000109244040E94900310924F0410924E049B
:100D500010924D0410924C0421C20E94DA0161E00D
:100D600086E491E00E94AC028091460461E0805DDF
:100D70000E94240261E08FE20E94240280914204DA
:100D800061E0805D0E94240261E08FE491E00E94B6
:100D9000AC028091440461E0805D0E94240261E025
:100DA0008FE20E9424028091400461E0805D0E94F5
:100DB000240261E08BE591E00E94AC0280913E0448
:100DC00061E0805D0E942402809148049091490472
:100DD000892B49F561E088E691E00E94AC020EE4BF
:100DE00014E0F8019081C7E69C02812D11248595BD
:100DF000859597FD839561E0805D0E942402F8014E
:100E000080818C02C12D1124C595C59587FDC395A0
:100E1000CC0F9C2F990F990FC90F8C1B61E0805D3F
:100E20000E94240205C061E086EB91E00E94AC02C2
:100E300061E085E791E00E94AC0280914E049091C0
:100E40004F04019690934F0480934E04A7C11092D3
:100E50004F0410924E0410924D0410924C041092C4
:100E60004B0410924A0410924704109246041092C8
:100E700045041092440410924304109242041092CC
:100E80004104109240048AC110924D0410924C0407
:100E900010924F0410924E04109247041092460490
:100EA000109245041092440479C180914C049091B1
:100EB0004D04019690934D0480934C0410924F047E
:100EC00010924E046BC10E94DA0161E085E991E065
:100ED0000E94AC028091480490914904892B49F505
:100EE00061E08CE691E00E94AC020EE414E0F801AF
:100EF0009081C7E69C02812D11248595859597FDEB
:100F0000839561E0805D0E942402F80180818C025B
:100F1000C12D1124C595C59587FDC395CC0F9C2F78
:100F2000990F990FC90F8C1B61E0805D0E9424020C
:100F300005C061E086EB91E00E94AC0261E082EBCB
:100F400091E00E94AC0261E085EC91E00E94AC026D
:100F500080914E0490914F04019690934F0480939A
:100F60004E041CC180914C0490914D0401969093C5
:100F70004D0480934C0410924F0410924E040EC105
:100F80000E94DA0161E082ED91E00E94AC02809162
:100F9000480490914904892B49F561E088E691E085
:100FA0000E94AC020EE414E0F8019081C7E69C02B6
:100FB000812D11248595859597FD839561E0805D50
:100FC0000E942402F80180818C02C12D1124C59554
:100FD000C59587FDC395CC0F9C2F990F990FC90F0D
:100FE0008C1B61E0805D0E94240205C061E086EBFD
:100FF00091E00E94AC0261E082EB91E00E94AC02C1
:1010000061E085EC91E00E94AC0280914E049091E9
:101010004F04019690934F0480934E04BFC080917B
:101020004C0490914D04019690934D0480934C0490
:1010300010924F0410924E04B1C00E94DA0161E098
:101040008BEE91E00E94AC0280914804909149049B
:10105000892B49F561E088E691E00E94AC020EE43C
:1010600014E0F8019081C7E69C02812D112485953A
:10107000859597FD839561E0805D0E942402F801CB
:1010800080818C02C12D1124C595C59587FDC3951E
:10109000CC0F9C2F990F990FC90F8C1B61E0805DBD
:1010A0000E94240205C061E086EB91E00E94AC0240
:1010B00061E082EB91E00E94AC0261E085EC91E09E
:1010C0000E94AC0280914E0490914F04019690933F
:1010D0004F0480934E0462C080914804909149046B
:1010E000009731F40196909349048093480456C0C8
:1010F0000197909349048093480450C00E94DA01FC
:1011000080913C0490913D04892B31F462E084E0AD
:1011100092E00E94AC0205C062E08DE092E00E9485
:10112000AC0261E086E192E00E94AC020E940A03F8
:10113000909351048093500462E574E00E945A0336
:1011400063E082E594E00E947903892B29F01092F4
:101150005F0410925E0406C088E090E090935F0404
:1011600080935E0410924F0410924E0410924D042E
:1011700010924C0410924B0410924A0410924704AF
:1011800010924604109245041092440410924304B5
:10119000109242041092410410924004DF91CF91CA
:1011A0001F910F9108958EEF81B981E082B98FEF81
:1011B00084B915B80E9496010E94DA0110925F046A
:1011C00010925E0480915E0490915F040E94FF0380
:1011D0000E94C202F7CF991B79E004C0991F9617AD
:1011E00008F0961B881F7A95C9F78095089597FB9C
:1011F000072E16F4009407D077FD09D00E94140939
:1012000007FC05D03EF4909581959F4F0895709509
:1012100061957F4F0895EE0FFF1F0024001C0BBE49
:101220000790F691E02D0994AA1BBB1B51E107C062
:10123000AA1FBB1FA617B70710F0A61BB70B881F66
:10124000991F5A95A9F780959095BC01CD010895F5
:101250008F929F92AF92BF92CF92DF92EF92FF92C6
:10126000CF93DF93EC01688179818A819B8161153D
:1012700071058105910521F464E279ED8BE597E034
:101280002DE133EF41E050E00E94950949015A01F8
:101290009B01AC01A7EAB1E40E9482096B017C01C9
:1012A000ACEEB4EFA50194010E949009DC01CB01E2
:1012B0008C0D9D1DAE1DBF1DB7FF03C00197A10979
:1012C000B04888839983AA83BB839F77DF91CF91AE
:1012D000FF90EF90DF90CF90BF90AF909F908F9056
:1012E00008950C9428098EE091E00C942809A0E060
:1012F000B0E080930E0190930F01A0931001B09382
:10130000110108950E94B409A59F900DB49F900DFE
:10131000A49F800D911D11240895B7FF0C9482099C
:101320000E948209821B930B0895052E97FB1EF4E1
:1013300000940E94AC0957FD07D00E94C30907FC26
:1013400003D04EF40C94AC095095409530952195FE
:101350003F4F4F4F5F4F08959095809570956195E1
:101360007F4F8F4F9F4F0895A29FB001B39FC00141
:10137000A39F700D811D1124911DB29F700D811DC1
:101380001124911D0895A1E21A2EAA1BBB1BFD0179
:101390000DC0AA1FBB1FEE1FFF1FA217B307E40754
:1013A000F50720F0A21BB30BE40BF50B661F771FAC
:1013B000881F991F1A9469F760957095809590958C
:0E13C0009B01AC01BD01CF010895F894FFCF51
:1013CE000000000200000000DB020000000001002F
:1013DE00000057656C636F6D652100506C6561731D
:1013EE00652063686F6F736520446966666963750F
:1013FE006C74793A202020452861292C4D286229C9
:10140E002C48287829004A75672041203D2000206D
:10141E0020204A75672042203D2000202020546164
:10142E0072676574203D20002020202054696D6570
:10143E0072203D20002020202053656C65637420AF
:10144E00416374696F6E20412C422C582C592C53D9
:10145E00742C53650063686F6F7365206A7567201F
:10146E00746F20706F757220696E746F20412F42F9
:10147E00200020202020202020202020202020207E
:10148E0020202020005820746F20676F2062616337
:10149E006B0063686F6F7365206A756720746F20C9
:1014AE00656D70747920412F42200063686F6F73F1
:1014BE0065206A756720746F2066696C6C20412FF9
:1014CE004220200047616D656F76657200436F6E36
:1014DE006772617473005468616E6B20796F75204A
:1014EE00666F7220706C6179696E6721205072652B
:1014FE00737353454C4543542032207265736574A3
:02150E000000DB
:00000001FF
