:100000000C9446000C945D000C945D000C945D0013
:100010000C945D000C945D000C945D000C945D00EC
:100020000C945D000C945D000C945D000C945D00DC
:100030000C945D000C945D000C945D000C945D00CC
:100040000C945D000C945D000C945D000C945D00BC
:100050000C945D000C945D000C945D000C945D00AC
:100060000C945D000C945D000C945D000C945D009C
:100070000C945D000C945D000C945D000C945D008C
:100080000C945D000C945D000C945D0011241FBE67
:10009000CFEFD0E4DEBFCDBF11E0A0E0B1E0E0E300
:1000A000F1E000E00BBF02C007900D92AE30B10747
:1000B000D9F70E9482000C9496000C940000CF9314
:1000C000C82F8A3019F48DE00E945F009091C00023
:1000D00095FFFCCFC093C60080E090E0CF910895DB
:1000E00040E050E020E030E008C080FF02C04F5FF9
:1000F0005F4F969587952F5F3F4F28303105ACF3C2
:10010000CA01089511B88FEF82B984B915B887B9BB
:1001100018B880B190E00E947000EC0183B190E0CB
:100120000E9470008C0F9D1F88B9F3CFF894FFCF09
:0E01300000000002000000005F000000000060
:00000001FF
