:100000000C9446000C9465000C9465000C946500FB
:100010000C9465000C9465000C9465000C946500CC
:100020000C9465000C9465000C9465000C946500BC
:100030000C9465000C9465000C9465000C946500AC
:100040000C9465000C9465000C9465000C9465009C
:100050000C9465000C9465000C9465000C9465008C
:100060000C9465000C9465000C9465000C9465007C
:100070000C9465000C9465000C9465000C9465006C
:100080000C9465000C9465000C94650011241FBE4F
:10009000CFEFD0E4DEBFCDBF11E0A0E0B1E0EEE6EF
:1000A000F2E000E00BBF02C007900D92AE30B10746
:1000B000D9F711E0AEE0B1E001C01D92AA31B1075D
:1000C000E1F70E941C010C9435010C940000CF93C1
:1000D000C82F8A3019F48DE00E9467009091C0000B
:1000E00095FFFCCFC093C60080E090E0CF910895CB
:1000F000442349F021E030E002C0220F331F6A950B
:10010000E2F7822B089521E030E002C0220F331F76
:100110006A95E2F720958223089521E030E002C03D
:10012000220F331F6A95E2F7822308950F931F93DE
:10013000CF9380B141E061E00E94780082B980E213
:100140008A95F1F780B140E061E00E94780082B9C1
:1001500080E18A95F1F7C0E000E010E030C080B1A6
:1001600060E00E948D0081110BC081E090E00C2EB8
:1001700002C0880F991F0A94E2F7082B192B0CC0B4
:1001800021E030E00C2E02C0220F331F0A94E2F768
:10019000209530950223132380B141E062E00E9454
:1001A000780082B980E18A95F1F780B140E062E0A1
:1001B0000E94780082B980E18A95F1F7CF5FCC3058
:1001C00070F2C801CF911F910F910895FC0190E04A
:1001D00040E014C021E030E0092E02C0220F331F9E
:1001E0000A94E2F72E233F23232B39F0DB01A40FDF
:1001F000B11D81E0890F8C934F5F9F5F9C3050F35E
:10020000FB01E40FF11D10820895AC0190E009C0DC
:10021000FA01E90FF11D2081261741F0222349F050
:100220009F5F9C30A8F380E090E0089581E090E02B
:10023000089580E090E008958EEF81B981E082B961
:100240008FEF84B915B80E9496006EE071E00E94AD
:10025000E60064E08EE091E00E940501892B19F030
:0E0260008FE085B9F0CF15B8EECFF894FFCF40
:0E026E00000000020000000067000000000019
:00000001FF
